:020000001B29BA
:08000800FF00030E8312031335
:10001000B4000A0EB500040EB6008A110A12452972
:100020004C08CD000030CE001C30CD070318CE0A9E
:100030004E088A004D088200C034F934A434B0342C
:10004000993492348234F83480349834CF01CD011D
:10005000CE01CE1908000310CD0DC90DCF0D4A08F1
:100060004F02031C3528CF004D14CE0A292845081D
:10007000CB004608C9000A30CA0026204F08CC0031
:100080001020C800C7088A110A1203194A287F30B5
:100090004805C800481C5128831606108312061014
:1000A00055288316061083120614C81C5C28831674
:1000B0008610831286106028831686108312861499
:1000C000481D672883160611831206116B288316B4
:1000D000061183120615C81D722883168611831215
:1000E000861176288316861183128615481E7D2870
:1000F00083160612831206128128831606128312B3
:100100000616C81E882883168612831286128C282B
:100110008316861283128616481F932883160613A9
:100120008312061397288316061383120617C81F17
:100130009E288316861383128613A228831686139D
:1001400083128617831685118312851108000730E4
:10015000831603139F00C030810005308312C40052
:100160000130C300C2004408C600C7013720023076
:10017000831605048500023083120505C600C301FD
:10018000023046020319C30AC308031DEA28440AC1
:10019000C4004408C600C70137204408093C0318BE
:1001A000D728C4014408C600C7013720CD28C3089A
:1001B000031DEA28023083160504850002308312ED
:1001C0000505C600C701023046020319C70A4708E1
:1001D000C300D7280130831605048500013083123F
:1001E0000505C600C20146030319C20AC208031D61
:1001F000B7284403C4004408C600C7013720C40818
:10020000031D09290930C4004408C600C70137206E
:10021000FF28C208031DB728013083160504850096
:10022000013083120505C600C70146030319C70A3A
:100230004708C2000929D53083120313A000C43037
:10024000A100BB30A200DC30A300A401A501A601DF
:10025000A701A801A901AA01AB01AC01AD01AE0142
:10026000AF01BC01BD01B701B801BE01BF01C001B2
:10027000C101B001B101B201B301BA01BB01B901C1
:100280000030C5008A110A12A72883120313360E04
:100290008400350E8A00340E8300FF0E7F0E0900A5
:02400E007A3FF7
:00000001FF
