:02000000E628F0
:08000800FF00030E8312031335
:10001000B4000A0EB500040EB6008A110A121029A7
:10002000C508031D14280800F93000000000000076
:10003000000000000000FF3E031D15280000000026
:1000400000000000000000000000C50B142808009C
:100050004A08CB000030CC003430CB070318CC0A60
:100060004C088A004B088200C034F934A434B03400
:10007000993492348234F83480349834FA30C5009C
:100080001020FA30C5001020FA30C5001020FA30D8
:10009000C5001020C40B3E280800CD01CB01CC01C7
:1000A000CC1908000310CB0DC70DCD0D48084D022B
:1000B000031C5C28CD004B14CC0A50284308C9000F
:1000C0004408C7000A30C8004D204D08CA00282047
:1000D000C600C5088A110A12031971287F30460527
:1000E000C600461C782883160610831206107C284A
:1000F0008316061083120614C61C832883168610E6
:100100008312861087288316861083128614461D54
:100110008E28831606118312061192288316061163
:1001200083120615C61D992883168611831286111F
:100130009D288316861183128615461EA4288316D1
:10014000061283120612A8288316061283120616B8
:10015000C61EAF288316861283128612B328831612
:10016000861283128616461FBA2883160613831238
:100170000613BE288316061383120617C61FC5284A
:100180008316861383128613C92883168613831257
:100190008617831685118312851108000730831690
:1001A00003139F00C03081008312C2014208C400C3
:1001B000C5015E200130C4003E204208093A031DFB
:1001C000E328C201D628420AC200D628D5308312BD
:1001D0000313A000C430A100BB30A200DC30A30098
:1001E000A401A501A601A701A801A901AA01AB01CB
:1001F000AC01AD01AE01AF01BC01BD01B701B80159
:10020000BE01BF01C001C101B001B101B201B30122
:10021000BA01BB01B9010030C3008A110A12CE280D
:1002200083120313360E8400350E8A00340E8300C9
:06023000FF0E7F0E090025
:02400E007A3FF7
:00000001FF
